:020000040800F2
:10000000E8520020E50200086F190008BD1600083C
:100010006D19000841040008A11C00080000000040
:10002000000000000000000000000000A101000826
:100030004304000800000000FD01000871190008D9
:10004000FF020008FF020008FF020008FF0200088C
:10005000FF020008FF020008FF020008FF0200087C
:10006000FF020008FF020008FF020008FF0200086C
:10007000FF020008FF020008FF020008FF0200085C
:10008000FF020008FF020008FF020008FF0200084C
:10009000FF020008FF020008FF020008FF0200083C
:1000A000FF020008FF020008FF020008FF0200082C
:1000B000FF020008FF020008FF020008FF0200081C
:1000C000FF020008FF020008FF020008FF0200080C
:1000D000FF020008FF020008FF020008FF020008FC
:1000E000FF020008FF020008FF020008FF020008EC
:1000F000FF020008FF020008FF020008FF020008DC
:10010000FF020008FF020008FF020008FF020008CB
:10011000FF020008FF020008FF020008FF020008BB
:10012000FF020008FF020008FF020008FF020008AB
:10013000FF0200080000000000000000FF020008AD
:10014000FF020008FF020008FF020008FF0200088B
:10015000FF020008FF020008FF020008FF0200087B
:10016000FF020008FF020008FF020008FF0200086B
:10017000FF020008FF02000800000000000000006D
:10018000FF020008FF020008DFF810D000F046F977
:10019000004800479D1F0008AFF30080E852002090
:1001A0002C4B19680868B0E8F04F80F30988BFF35A
:1001B0006F8F4FF0000080F311887047000000003F
:1001C00008480068006880F308884FF0000080F35A
:1001D000148862B661B6BFF34F8FBFF36F8F00DF35
:1001E00000BF00BF08ED00E0DFF80C00016841F43B
:1001F00070010160704700BF88ED00E0EFF30980F7
:10020000BFF36F8F134B1A681EF0100F08BF20ED5D
:10021000108A20E9F04F106009B44FF0500080F3CD
:100220001188BFF34F8FBFF36F8F02F09BFD4FF02C
:10023000000080F3118809BC19680868B0E8F04F25
:100240001EF0100F08BFB0EC108A80F30988BFF3CE
:100250006F8F704720000020EFF30580704700008B
:100260000246D2E84F0F411CC2E8431F03B1F8E732
:100270007047024652E8000F411C42E8001303B1E8
:10028000F8E770470246D2E84F0FC2E8431F03B1B8
:10029000F9E77047024652E8000F42E8001303B145
:1002A000F9E77047024652E8000F830103D3BFF31A
:1002B0002F8F0020704700F00040084342E8000301
:1002C00003B1F0E77047024652E8000F800103D205
:1002D000BFF32F8F0020704742E8001303B1F3E70C
:1002E000012070470648804706480047FEE7FEE7C2
:1002F000FEE7FEE7FEE7FEE7FEE7FEE7FEE7FEE7D6
:10030000211A0008890100082DE9F05F0546002048
:1003100092469B4688460646814640241BE0284676
:1003200041464746224600F069F853465A46C01AED
:10033000914110D311461846224600F050F82D1A6C
:1003400067EB01084F4622460120002100F047F8E4
:1003500017EB00094E41201EA4F10104DFDC4846E2
:1003600031462A464346BDE8F09F40EA01039B0719
:1003700003D009E008C9121F08C0042AFAD203E01A
:1003800011F8013B00F8013B521EF9D27047D2B27E
:1003900001E000F8012B491EFBD270470022F6E76E
:1003A00010B513460A4604461946FFF7F0FF2046EB
:1003B00010BD30B50B46014600202022012409E083
:1003C00021FA02F59D4205D303FA02F5491B04FA0E
:1003D00002F52844151EA2F10102F1DC30BD202AED
:1003E00004DB203A00FA02F1002070479140C2F18C
:1003F000200320FA03F3194390407047202A04DBBE
:10040000203A21FA02F00021704721FA02F3D0408D
:10041000C2F120029140084319467047064C074D2F
:1004200006E0E06840F0010394E8070098471034C4
:10043000AC42F6D3FFF7ACFE7438000894380008DD
:10044000FEE7704772B6FEE70749097851B10649E1
:10045000C0F3C6228039C0F30220895CC14001F09C
:100460000100704700207047C04E00202DE9F04188
:100470000E4C04F11807A66900F0D8F90546B04201
:100480000BD201210A48FFF7FDFE30B92069002197
:10049000401C20610648FFF7F5FE29463846FFF765
:1004A000F9FE8642E7D12846BDE8F081C04E002023
:1004B000A800002070B514460D460646FFF7C4FF9D
:1004C00088B1FFF7D3FF0146B2B2EFF3058008B160
:1004D0004FF40020104323462A46BDE8704040F008
:1004E000407000F07FB8012070BD00002DE9FC478E
:1004F00014460D00064601D0802C02D90020BDE82C
:10050000FC87FFF7A1FF48B1FFF7B0FF8046B1B20B
:10051000EFF3058020B14FF4002702E00120EEE761
:1005200000270F43A4B14FF000094FF4E026082C38
:1005300013D8CDF80090224629466846CDF804909D
:10054000FFF713FF06EA0440384340F0407040E0F4
:1005500000231A46414638463EE02148FFF780FE18
:1005600006EA004655F8040B009055F8040B374393
:100570000346019047F080704146083C009A00F025
:1005800031F80028BBD04FF60170064310E000BFE1
:1005900055F8040B009055F8040B019003464146B2
:1005A0003046083C009A00F01DF8761C0028A6D0C2
:1005B000082CEDD8CDF80090224629466846CDF8A3
:1005C0000490FFF7D2FE26F47F4040EA042040F07A
:1005D0000070DDE90023414600F004F88FE70000D9
:1005E000C14E00202DE9FF5F8B464FF0805000EA9E
:1005F000DB08400007259A469146410000EA99072A
:1006000001EA5A062048FFF734FE014600F03F0297
:100610001E48890900EB02144FF4700000EA0151F2
:100620000098084340EA08003843304340F04061F6
:1006300004F10C00FFF736FE41011CD580F00441A7
:1006400001F000402BF000420243226029F00042FA
:10065000024362602AF00042024304F10C00A260EF
:10066000FFF731FE48B10848001DFFF702FE0120E8
:1006700004B0BDE8F09F6D1EC4D103480830FFF7F9
:10068000F8FD0020F4E70000C44E0020404A00209E
:100690002DE9F0478146FF2901D2FF2A02D300202D
:1006A000BDE8F0870024104D20464FF0010A0AFAF9
:1006B00000F3564613EA090F0FD00B46B2460AE084
:1006C00004EBD30603F00708AF5D0AFA08FC47EA1B
:1006D0000C07AF555B1C9342F2D9401C2034042810
:1006E000E5D30120DCE70000404E00202DE9F04773
:1006F0003D4C88468146002525708021A4F180006C
:10070000FFF74CFE394B4FF6FF761822304641F288
:10071000210700BF13F8011B80EA01205FF00801E8
:100720005FEA004C06EA400000D57840491EF7D148
:10073000521EEFD12E4A236A0121934201D0226238
:1007400002E06288824202D06080E16137E0E069C5
:10075000401CE061012832D0264B002003EB001141
:10076000CA68560102D522F04062CA60401C402887
:10077000F4D3E06901282BD000F064F80646DEB11E
:10078000FE2200214846FFF783FFEF2211460F208B
:10079000FFF77EFFFE2211460420FFF779FFFFF7E7
:1007A00065FE014614486369E269FFF71BFFB8F173
:1007B000000F01D000F024F83046BDE8F0876570E6
:1007C0006560A5604FF480610A48E560FFF7E6FDCB
:1007D00000F038F8061E01D000F02EF8C4E9050537
:1007E000064825610570CAE7C04E0020443800085D
:1007F0006B27A5E1404A002000FF0003A80000206D
:10080000084810B5017809B1012010BD012101701F
:10081000FFF72CFE014600231A460348FFF7E2FECD
:10082000F2E70000C04E002001FF000301484068CD
:1008300070470000001000E00148006870470000A9
:100840001C0000200548016841F0807101600448E7
:10085000016841F00101016001207047FCED00E0FA
:10086000001000E070B5040003D094F8200010B12F
:1008700004E0012070BD204600F082F82068016885
:1008800041F00101016000F0F7F90546052604E09A
:1008900000F0F2F9401B0A2811D820684068C00710
:1008A000F6D02068016821F00201016000F0E4F94F
:1008B00005460BE000F0E0F9401B0A2806D9606A03
:1008C00040F40030606284F82060D2E7206840681D
:1008D0008007EFD4207E0128206801683DD021F0F8
:1008E00080010160607E01282068016838D021F015
:1008F00040010160A07E01282068016833D021F00A
:1009000020010160E07E0128206801682ED041F0BE
:1009100010010160207F01282068016829D021F0A2
:1009200008010160607F01282068016824D021F05F
:1009300004010160D4E902010843D4E9041211431F
:1009400008436168491E08432168C861002060624D
:10095000012084F82000002070BD41F08001C0E734
:1009600041F04001C5E741F02001CAE721F0100144
:10097000CFE741F00801D4E741F00401D9E70000D6
:10098000F0B587B0044614216846FFF707FD2D4BEC
:100990002D48DFF8ACE01968D4F800C02A4A0225D7
:1009A0000326092710300024491CF44519D1196089
:1009B000012907D1016841F000710160006800F071
:1009C00000700590106840F00100106010686946E2
:1009D00000F0010005904FF4C050CDE900051B4820
:1009E00027E0DFF86CE0F44528D1D0F800C04CF0E7
:1009F000806CC0F800C0D0F800C001290CF0806CF9
:100A0000CDF814C0196007D1016841F00071016090
:100A1000006800F000700590106840F0020010605F
:100A20001068694600F0020005906020CDE90005DD
:100A3000084802AB83E8D00000F020F807B0F0BD12
:100A4000006400400C0000203038024000000240EA
:100A5000006800400004024070B5044600F00CF944
:100A60000546601C02D004480078044400F004F9F4
:100A7000401BA042FAD370BD100000202DE9F84FB2
:100A8000DFF8BCA10022012503264FF00F090AF16F
:100A9000040BAAF1040E00BF0B6805FA02F4234010
:100AA000A34270D10F7907F00307012F01D0022F65
:100AB00016D187684FEA420806FA08FC27EA0C07B5
:100AC000D1F80CC00CFA08FC4CEA070CC0F808C0BE
:100AD0004768A7430C79C4F3001494403C43446036
:100AE0000C79E443A4070AD0C4684FEA420C06FA22
:100AF0000CF7BC438F6807FA0CF72743C7600C79E3
:100B000004F00304022C12D1D40800EB840CDCF8AE
:100B100020405707FF0E09FA07F824EA0804D1F825
:100B2000108008FA07F848EA0408CCF82080046826
:100B30004FEA420C06FA0CF7BC430F7907F00307A3
:100B400007FA0CF7274307604C6814F4403F70D055
:100B50003C4C276847F480472760246822F003074D
:100B600004F480440094384C07EB040CDCF808488B
:100B700097074FEA177809FA08F7BC43334FB84292
:100B800002D1002724E054E0314FB84201D10127BF
:100B90001EE0304FB84201D1022719E02E4FB84273
:100BA00001D1032714E02D4FB84201D104270FE0F3
:100BB0002B4FB84201D105270AE02A4FB84201D194
:100BC000062705E0284FB84201D1072700E0082793
:100BD00007FA08F72743CCF80878DAF800405746B8
:100BE000D1F804C09C435FEACC2C00D51C433C6088
:100BF000DBF800405F46D1F804C09C435FEA8C2CD0
:100C000000D51C433C60DEF800407746D1F804C0B4
:100C10009C435FEA8C3C00D51C433C60084F083F76
:100C20003C68D1F804C09C435FEACC3C00D51C432F
:100C30003C60521C102AFFF42FAFBDE8F88F000073
:100C4000083C0140443802400030014000000240AE
:100C50000004024000080240000C02400010024064
:100C60000014024000180240001C02400AB18161D9
:100C700070470904FBE700000148806870470000E6
:100C8000100000200248816802781144816070479A
:100C9000100000200B4810B5016841F4007101609C
:100CA000016841F480610160016841F48071016074
:100CB000032000F065F80F2000F006F800F024F89B
:100CC000002010BD003C024070B50D4D04464FF4AD
:100CD0007A712878B1FBF0F00A490968B1FBF0F0AD
:100CE00000F0F2FA48B9102C07D200222146501E1B
:100CF00000F026F800206C6070BD012070BD00007F
:100D0000100000201C0000200C4882B0016841F453
:100D100080410160006800F4804000900748001F97
:100D2000016841F0805101600068002200F08050AD
:100D300000900F21901E02B000F002B8443802402B
:100D4000F0B40E4B1B680C46C3F30223C3F1070536
:100D5000042D00D90425191D072901D2002300E024
:100D6000DB1E012606FA05F1491E214099409E40EE
:100D7000761E16403143F0BC00F0A4BF0CED00E03D
:100D8000064900F0070208684FF6FF03184040EAE2
:100D90000220034A10430860704700000CED00E099
:100DA0000000FA052DE9F0470E46050065D0DFF892
:100DB0001481D8F80000F7B200F00700B04207D263
:100DC00088F80070D8F8000000F00700B04254D155
:100DD00028683D4C810712D5400703D5206840F4B0
:100DE000E05020602878000703D5206840F4604078
:100DF00020602068A96820F0F0000843206028786F
:100E0000C0072DD0304968680839012812D002285F
:100E100013D0032811D00968890700292DDA216829
:100E200021F0030101432160FFF726FF814641F2D3
:100E3000883A0EE009688903EFE709688901ECE761
:100E4000FFF71AFFA0EB0901514502D90320BDE8C5
:100E5000F0872068696800F00C00B0EB810FEFD1DB
:100E6000D8F80010404601F00701B14207D90770D9
:100E7000006800F00700B04201D00120E7E72878C1
:100E8000400705D52068E96820F4E0500843206059
:100E90002878000706D52068296920F4604040EAD8
:100EA000C100206000F028F82168084AC1F303114E
:100EB000515CC8400649086006480068FFF704FF17
:100EC0000020C4E7003C0240083802402C380008EB
:100ED0001C0000201400002004480549006809682F
:100EE000044AC1F38221515CC84070471C000020B5
:100EF000083802403C380008154810B5006810F06A
:100F00000C02144813D01449042A0FD0082A0ED119
:100F10000F4C241F2268236802F03F025B0207D5B2
:100F20002068C0F38810A0FB010106E0084610BD50
:100F30002168C1F38811A1FB00010023FFF7E4F948
:100F40002168C1F30141491C4900B0FBF1F010BD1B
:100F5000083802400024F40040787D012DE9F84F64
:100F600004006ED02078DFF84C93C007A9F1040587
:100F70004AD009F104000168C1F38101012908D0B8
:100F80000068C0F3810002280AD1D9F800004002AD
:100F900006D52868800337D560680028E1D033E0A3
:100FA0006068B0F5803F10D0B0F5A02F286810D051
:100FB00020F480302860286820F480202860606851
:100FC000A8B1FFF759FE06460DE0286840F48030CE
:100FD000F4E740F480202860F7E700BFFFF74CFEFD
:100FE000801B642873D828688003F7D50CE0FFF7CE
:100FF00043FE064605E000BFFFF73EFE801B642867
:10100000F0D828688003F7D42078DFF8AC82800716
:101010004FF0000A3ED5A748001D016811F00C0FE3
:1010200008D00068C0F3810002280BD1D9F8000075
:10103000400207D42868800716D5E068012800D14F
:1010400012E033E1E068B8B10120C8F80000FFF712
:1010500013FE064605E000BFFFF70EFE801B0228C8
:10106000C0D828688007F7D52868216920F0F800E3
:1010700040EAC10028600DE0C8F800A0FFF7FCFDC1
:10108000064604E0FFF7F8FD801B02281FD82868F9
:101090008007F7D42078000722D5864F87486169FA
:1010A000703771B101210160FFF7E6FD064604E0EB
:1010B000FFF7E2FD801B022809D838688007F7D5C2
:1010C0000EE0C0F800A0FFF7D7FD064605E082E07D
:1010D000FFF7D2FD801B02287DD838688007F7D43F
:1010E0002078400768D5DFF8CCB100270BF13C0B26
:1010F000DBF80000C0000BD4DBF8001041F0805199
:10110000CBF80010DBF80000012700F080500090C1
:101110006B4E3068C00510D4306840F48070306089
:10112000FFF7AAFD009005E0FFF7A6FD0099401A21
:10113000022850D83068C005F6D55E4EA0686C36DF
:1011400001280FD00528306810D020F00100306051
:10115000306820F004003060A068B8B1FFF78CFD63
:1011600000900FE0306840F00100F4E740F0040028
:101170003060F7E7FFF780FD0099411A41F28830AF
:10118000814266D830688007F4D50EE0FFF774FD21
:10119000009007E0FFF770FD0099411A41F2883096
:1011A000814256D830688007F4D42FB1DBF80010A4
:1011B00021F08051CBF80010A069C8B33D49091D4A
:1011C0000968C1F3810102294AD00228504607D09C
:1011D000C8F8600000E03CE0FFF74EFD04463BE04D
:1011E0004746C8F86000FFF747FD064605E000BF28
:1011F000FFF742FD801B02282BD828688001F7D416
:10120000D4E907010843A16A2E4A490802EB0141CB
:10121000626A41EA8211084394F82C1040EA0161A5
:10122000C9F8001001203866FFF726FD044606E0E5
:101230003EE000BFFFF720FD001B022809D8286808
:101240008001F7D534E000BFFFF716FD001B022830
:1012500002D90320BDE8F88F28688001F4D427E084
:101260000128F7D0D9F80000E26900F4800191422A
:101270001CD1226A00F03F01914217D147F6C0719C
:10128000626A0140B1EB821F10D1A26A4FF0FF33B6
:1012900000F4403103EB5202B1EB024F06D194F857
:1012A0002C1000F07060B0EB016F01D00120D1E78D
:1012B0000020CFE70438024000004742800E47423A
:1012C000007000400000FFFF10B5401EB0F1807FAD
:1012D00001D3012010BD4FF0E02460610F216017A1
:1012E00000F0F0FC0020A06107202061002010BD6C
:1012F00010B590F83C20012A22D0012280F83C2031
:10130000CA688C6822F4407222434C6822F48062DE
:1013100022430C6822F4006222430C6922F48052BA
:1013200022434C6922F400522243C969002322F46B
:1013300080420A4301684A6480F83C30002010BDB6
:10134000022010BD70B590F83C20012A32D0012453
:1013500080F83C40022280F83D2003685A689D686E
:1013600022F070060A6832435A60134B02689A42B0
:1013700014D0B2F1804F11D0104B9A420ED0104BC6
:101380009A420BD00F4B9A4208D00F4B9A4205D08D
:101390000E4B9A4202D00E4B9A4204D1496825F076
:1013A00080031943916080F83D40002180F83C1093
:1013B000084670BD022070BD0000014000040040DE
:1013C00000080040000C00400004014000400140C3
:1013D0000018004010B586B0044614216846FEF798
:1013E000DDFF0E492068884216D10D4800210268B1
:1013F00042F001020260006800F0010005904FF425
:10140000807000900220CDE901010120CDE9031098
:1014100069460448FFF732FB06B010BD00000140EA
:10142000303802400000024070B5044690F83C009D
:1014300000260D4601280FD0012084F83C006AB137
:10144000042A1DD0082A2FD00C2A3FD001260020C4
:1014500084F83C00304670BD022070BD206800F06A
:101460005DFB2068816941F0080181612068816924
:1014700021F004018161206881692A69114311E02A
:10148000206800F07BFB2068816941F40061816184
:101490002068816921F480618161206881692A69FD
:1014A00041EA02218161D2E7206800F09DFB2068BB
:1014B000C16941F00801C1612068C16921F00401DE
:1014C000C1612068C1692A69114311E0206800F0F8
:1014D000BFFB2068C16941F40061C1612068C16936
:1014E00021F48061C1612068C1692A6941EA022151
:1014F000C161ACE710B5040003D094F83D0010B111
:1015000007E0012010BD002084F83C00204600F0D8
:101510001FF8022084F83D00211D206800F088FAA1
:10152000012084F8460084F83E0084F83F0084F8E7
:10153000400084F8410084F8420084F8430084F8B5
:10154000440084F8450084F83D00002010BD0000F0
:1015500008B500680649884208D10648016841F08C
:1015600001010160006800F00100009008BD00006A
:10157000000001404438024010B50446022249B13F
:1015800004290ED0082913D094F84100012816D060
:10159000012010BD94F83E000128F9D184F83E20C6
:1015A0000FE094F83F000128F2D184F83F2008E0D2
:1015B00094F840000128EBD184F8402001E084F841
:1015C00041200122206800F09BFA16492068164A43
:1015D000884201D0904203D1436C43F400434364FA
:1015E0002068884213D0B0F1804F10D00F49884254
:1015F0000DD00F4988420AD00E49884207D0904248
:1016000005D00D49884202D00C49884204D1816836
:1016100001F00701062903D0016841F001010160D2
:10162000002010BD00000140000401400004004003
:1016300000080040000C004000400140001800403D
:1016400030B504460D460068002200F059FA194BE7
:1016500041F2111120688A10984202D0164B98422C
:1016600009D1036A0B4206D1036A134203D1436CCA
:1016700023F4004343642068036A0B4206D1016AE5
:10168000114203D1016821F00101016001203DB147
:10169000042D08D0082D09D084F84100002030BD69
:1016A00084F83E00FAE784F83F00F7E784F840004A
:1016B000F4E700000000014000040140FEE70000E4
:1016C000224C234D012220681021401C2060284616
:1016D000FFF7CCFA642000F08EFC0122202128467E
:1016E000FFF7C4FA642000F086FC0022102128468F
:1016F000FFF7BCFA642000F07EFC0122402128465E
:10170000FFF7B4FA642000F076FC0022202128467E
:10171000FFF7ACFA642000F06EFC0122802128461D
:10172000FFF7A4FA642000F066FC0022402128465E
:10173000FFF79CFA642000F05EFC0022802128461E
:10174000FFF794FA642000F056FCBBE7A4000020E9
:10175000000002400F4810B50D49016003214160AF
:1017600000214FF410228160C0E903124FF40012EF
:101770004261017641768176C17601774177FFF744
:1017800071F8002803D0BDE81040FEF75BBE10BD25
:1017900000640040BC0000200F4810B50D490160F6
:1017A0000321416000214FF410228160C0E903123F
:1017B0004FF400124261017641768176C17601775D
:1017C0004177FFF74FF8002803D0BDE81040FEF73F
:1017D00039BE10BD00680040E400002010B50B4A7F
:1017E00000210B4800F042FC0A4C084A002120600E
:1017F0002432094800F03AFC044A60604832002173
:10180000064800F033FCA06010BD0000C03700089F
:10181000C116000800000020591E0008ED1F000836
:101820002DE9F04186B014216846FEF7B7FD234844
:101830000024016841F080010160016801F080012D
:101840000591016841F001010160016801F00101A9
:101850000591016841F004010160016801F0040193
:101860000591016841F0020101600068144F00F029
:10187000020040F2FC650590002229463846FFF739
:10188000F5F9DFF840804FF44066002231464046CB
:10189000FFF7ECF900950125CDE90154694638467A
:1018A0000394FFF7EBF80096CDE9015469464046F2
:1018B0000394FFF7E3F806B0BDE8F081303802404A
:1018C000000002400008024010B592B000240F94BE
:1018D0001C2108A81094FEF761FD20216846FEF740
:1018E0005DFD21481F4901601D21C0E9011440F23E
:1018F0004731C0E9031444618461FFF7FBFD08B17F
:10190000FEF7A0FD0F940FA917481094FFF71AFDDA
:1019100008B1FEF797FD602008906420CDE9090426
:101920000B940C940D94002208A90F480E94FFF715
:101930007BFD08B1FEF786FD00944FF40050CDE921
:101940000440029401940394694607480794FFF702
:10195000CFFC08B1FEF776FD0348FFF73BFD12B060
:1019600010BD0000000001400C010020FEE7FEE772
:1019700010B5FFF787F901F06DFD012803D0BDE830
:10198000104001F09BBA10BD30B593B030216846CD
:10199000FEF704FD14210CA8FEF700FD1E480025EB
:1019A000016841F080510160006800F080501190A2
:1019B0001A48016841F4804101600068022400F483
:1019C0008040119001200090000401908001CDE939
:1019D0000640192008904FF4A870CDE909040420AE
:1019E0000B906846FFF7BAFA08B172B6FEE70CA989
:1019F0000F2081E831004FF4A0500F904FF4805039
:101A0000109005210CA8FFF7CDF9002801D072B67F
:101A1000FEE713B030BD00004038024000700040C7
:101A20000248016841F470010160704788ED00E0F0
:101A3000F0B50268274B284D284E294F294C4FF00E
:101A4000804C984209D0604507D0A84205D0B042EA
:101A500003D0B84201D0A04204D122F0700E4A68EF
:101A600042EA0E0298421BD0604519D0A84217D016
:101A7000B04215D0B84213D0A04211D01A4DA8429E
:101A80000ED01A4DA8420BD0194DA84208D0194DBE
:101A9000A84205D0184DA84202D0184DA84203D143
:101AA00022F44075CA682A434D6922F080022A4315
:101AB0008D68C5620D688562984201D0A04201D14F
:101AC00009690163016841F004010160012141617C
:101AD0000260F0BD0000014000040040000800402A
:101AE000000C00400004014000400140004401405F
:101AF0000048014000180040001C00400020004049
:101B000010B501F01F030121046A99408C4304625F
:101B1000016A9A401143016210BD0000F0B5036AEA
:101B2000026A22F00102026242688469124E24F0C5
:101B300073050C682C4323F002058B682B430D4D75
:101B4000A84201D0B04205D123F00807CB683B433F
:101B500023F00403A84201D0B04205D14D6922F41C
:101B6000407215438A692A4342608461496841632F
:101B70000362F0BD0000014000040140F0B5026ABC
:101B8000036A23F010030362436884690D6824F438
:101B9000E64444EA05248D6822F0200242EA051258
:101BA0000F4D104EA84201D0B04206D1CF6822F0AE
:101BB000800242EA071222F04002A84201D0B0425D
:101BC00007D14D6923F4406343EA85038D6943EAF5
:101BD000850343608461496881630262F0BD00004F
:101BE0000000014000040140F0B5026A036A23F4DA
:101BF000807303624368C46922F4007224F07305A1
:101C00000C68124E2C438D6842EA05220E4DA84204
:101C100001D0B04206D1CF6822F4006242EA072226
:101C200022F48062A84201D0B04207D14D6923F46A
:101C3000405343EA05138D6943EA05134360C461C9
:101C40004968C1630262F0BD000001400004014028
:101C500030B5046A026A22F4805202624268C369A3
:101C60000D6823F4E64343EA05238D6824F4005409
:101C700044EA0534084DA84202D0084DA84204D1D8
:101C80004D6922F4804242EA85124260C36149688C
:101C90000164046230BD0000000001400004014006
:101CA000FEE700000FB4054B10B503A9044A0298E3
:101CB00000F028F810BC5DF814FB0000511F00086C
:101CC000B80000200907090E002804DB00F1E0201D
:101CD00080F80014704700F00F0000F1E02080F859
:101CE000141D704702E008C8121F08C1002AFAD16B
:101CF00070477047002001E001C1121F002AFBD18C
:101D0000704700002DE9FF4F89B09B46044600252F
:101D100006E025280BD05A460B999047641C6D1C91
:101D200020780028F5D10DB02846BDE8F08F0027B7
:101D3000B8460122474900E0074314F8013F203B21
:101D400002FA03F00842F7D120782E2819D114F8AE
:101D5000010F47F004072A280ED06FF02F022078D9
:101D6000A0F1300109290CD808EB880102EB4101F0
:101D700000EB0108641CF2E70A98641C50F8048B1D
:101D80000A9020780028CED0642808D0692806D090
:101D900075281ED05A460B9990476D1C58E00A9939
:101DA0004FF00A0901C90A91002802DA40422D21A8
:101DB00002E0390504D52B218DF82010012103E024
:101DC000F90704D02021F7E78A4608AE0DE000218C
:101DD000FAE70A994FF00A0901C90A91F7E749465B
:101DE000FEF7E7FA303106F8011D0028F7D1ADEB18
:101DF000060000F12009780701D44FF00108C8451A
:101E000002DDA8EB090000E000208046002706E084
:101E100008A85A46C05D0B9990476D1C7F1C57451A
:101E2000F6DB04E030205A460B9990476D1CB8F160
:101E30000001A8F10108F5DC05E016F8010B5A468F
:101E40000B9990476D1CB9F10001A9F10109F4DC6F
:101E5000641C65E7092801000220124C4FF46F460C
:101E600040F6B8374EF62075206020220EA130468D
:101E7000FEF720FB14A02168FFF714FF6421384609
:101E800000F034F82068401E2060642000F0B3F8B1
:101E9000262205A12846FEF70DFB20680028F4D075
:101EA000E3E70000A00000202E2E5C6170706C69DA
:101EB000636174696F6E5C42757A7A65725F746192
:101EC000736B2E6300000000B7E4C3F9C6F7CFECD4
:101ED000B5DA2564B4CE0D0A0000000002490020E6
:101EE00009684863704700000C0100202DE9F041AB
:101EF0000E46040025D026B3FEF7EEFF134DA98849
:101F0000491C89B2B0FBF1F0B0FBF4F4641EB4F5E7
:101F1000803F16D2ACB1C4F34F0700212846FFF72B
:101F20008FFB2968A0B2C862E86028684763296807
:101F30000020486201462846FFF71EFB3046FEF7A8
:101F40008BFDBDE8F041FFF7C9BF00000C01002088
:101F500070B50F4A4FF0FF33914204D10D4D044646
:101F60002A68082A01D3184670BD0A48001D845407
:101F7000521C2A60082A01D00A2C06D105490648BD
:101F8000091DFEF7B3FA00202860204670BD00004E
:101F9000B8000020AC00002000FE0200FEF77AFE30
:101FA000FFF7F2FCFFF73CFCFFF78EFCFFF7D2FBDC
:101FB000FFF7F2FB01210F20FEF798FBFEF720FC54
:101FC00040F6B83464212046FFF790FFFFF786FF04
:101FD0006420FEF741FD64212046FFF787FF00F0F3
:101FE00017F8FFF7FBFB00F025F8FEE710B501201E
:101FF00000F001F8FBE710B5EFF3058111B16FF0C8
:10200000050403E0002408B100F0F8FD204610BDEF
:10201000EFF3058010B16FF00500704704480168C8
:1020200011B14FF0FF30704701210160002070476F
:102030007000002010B5EFF3058010B16FF00500BF
:1020400010BD08480168012902D04FF0FF3010BDD3
:10205000054A002182F8141D0221016000F036FEBD
:10206000002010BD700000200BE000E02DE9FF41D2
:102070004FEA01034FF00005EFF30581039549BBDB
:1020800040B38027182100244AB3166806B13446AD
:1020900096691EB13146761E382E02D21679F607A1
:1020A00003D0002004B0BDE8F081566906B1B7083E
:1020B000D2F808C0BCF1000F0DD0D5685C2D18D344
:1020C00012693AB136B18DE806103A46214601F060
:1020D00096F903900DE0D6685EB912694AB903AA71
:1020E000CDE90012BAB2214601F05CF9012800D016
:1020F00003950398D6E700002DE9F041134C0F46F5
:102100000546E6682068001D00F044FC681C07D105
:1021100037B12168BDE8F0410D48091D00F08ABCC7
:1021200020683544B5424560216805D2A06BBDE802
:10213000F041091D00F066BC606B091D00F062FCF7
:10214000A06A854200D2A562BDE8F081200000208F
:10215000440600202DE9F041054600F077FC2D4CA7
:10216000A068401CA06020682B4F10B1606930B39C
:102170002BE02560A068012827D1002606EB860009
:1021800007EB800000F030FC761C382EF6D3234895
:1021900000F02AFC2148143000F026FC1F482830AB
:1021A00000F022FC1D483C3000F01EFC1B48503063
:1021B00000F01AFC194860631430A06305E0206841
:1021C000E96AC06A884200D82560606A401C606283
:1021D0006864E86A2169884200D9206100EB8000C8
:1021E00007EB8000291D00F025FC00F04FFC606922
:1021F00000280CD02068E96AC06A884207D20849E2
:102200004FF080500860BFF34F8FBFF36F8FBDE872
:10221000F08100002000002094010020F40500203F
:1022200004ED00E038B500F011FC104C2068C8B98E
:102230000F4800F0D9FB0E48143000F0D5FB0C48D5
:10224000E060143020610A4B0020F03B009003F165
:10225000500210210A2000F047FE206010B105A1B5
:1022600000F096FCBDE8384000F010BC5C00002097
:1022700048070020546D72510000000030B4026C19
:102280000B46002A0BD0C1681144C1608468A1428A
:1022900001D30168C16030BC1846FEF766B830BC97
:1022A00070472DE9F041856B174604460026026C05
:1022B00082B1C7B1E068FEF758F8E168206C091AEE
:1022C000E1602268914202D2A168081AE060022F00
:1022D00016D017E02068A8B9A06801F033F90646C7
:1022E0000020A0600EE06068FEF73FF8216C606897
:1022F00008446060A168884204D32068606001E0FF
:1023000005B16D1E6D1CA5633046BDE8F08110B5AA
:10231000044690F8590058B101280CD002280FD07B
:10232000502080F31188BFF34F8FBFF36F8FFEE70C
:10233000206B00F0BFFB2046BDE8104000F0BABBA8
:1023400010BD000010484FF47051420706D0C01D68
:102350000D4920F00700411AC1F570510B4A0023C6
:102360000144C2E900030839183A21F0070111605D
:102370004B600B600B1AC0E9001393604FF00040F4
:102380005360506170470000280E00208C00002030
:10239000144E154CA6F29C474FF08058DFF84C9035
:1023A00012E000BF00F052FBF068C568281D00F085
:1023B000F1FAA068401EA0606068401E606000F0F6
:1023C00065FB2846FFF7A3FF60680028EAD138685C
:1023D0000128F9D9C9F80080BFF34F8FBFF36F8F81
:1023E000F2E70000300600202000002004ED00E0AD
:1023F00070B51D46049C51B1C4F80020C4E90F011A
:102400000121204600F0A4FD84F84C5070BD2460EA
:10241000F4E700002DE9F05F8846DDE90B941546EE
:10242000834691009A460A9EA522206BFDF7AFFFD6
:102430006FF00301206B01EB8501084420F00707D2
:10244000780707D0502080F31188BFF34F8FBFF378
:102450006F8FFEE70025B8F1000F0FD05FF000008E
:10246000221818F8001082F8341018F8001011B172
:10247000401C1028F4D384F8435001E084F8345011
:10248000382E00D33726E662C4E91365201D00F01C
:10249000B6FA04F1180000F0B2FA2461C6F138006F
:1024A0006462A061656584F85850524659463846C2
:1024B00000F05AFA2060B9F1000F01D0C9F80040CD
:1024C000BDE8F09F30B5114900E011460A6882422C
:1024D000FBD34B685C18844203D1406818444860C1
:1024E000084643681C18944209D1084C183C2468DB
:1024F000A24209D052681A4442600A681268026017
:10250000814200D0086030BD0460F9E78C000020F3
:1025100070B5002441600B4D0061914206D8D11A7C
:102520008269914206D2011D286907E09A4203D2CE
:10253000994201D3012403E0011DE86800F062FA2A
:10254000204670BD5C00002010B5044600F07EFA05
:10255000A06B28B15FF0000400F098FA204610BD8F
:102560000124F9E730B589B03C4D6EE004980028AD
:1025700006DADDE90601059A90470498002864DB35
:10258000069C606910B1201D00F004FA03A800F059
:10259000D7F8024604980A2857D2DFE800F005056C
:1025A000052D334A05052D3394F8280040F001002D
:1025B00084F828000599A069059B01442046FFF78F
:1025C000A7FF68B3216A2046884794F8280040078F
:1025D0003BD5002000900598A169002342181946B8
:1025E000204601F0B9F8D8B9502080F31188BFF324
:1025F0004F8FBFF36F8FFEE714F8280F20F0010014
:10260000207022E094F8280040F0010084F82800AF
:102610000598A06128B1811813462046FFF778FF7E
:1026200013E0502080F31188BFF34F8FBFF36F8FFB
:10263000FEE794F82800810703D4204600F03AFA18
:1026400003E020F0010084F82800002204A9286893
:1026500000F0D2FD002889D109B030BD5C00002017
:102660002DE9FC410F46054600F074FB01A800F07F
:1026700067F80446019818B100F0DCFFBDE8FC8162
:10268000254EAFB130690068D0B30027291B3A4608
:10269000306800F091FA00F0CDFF0028EED11F491C
:1026A0004FF080500860BFF34F8FBFF36F8FE5E7A7
:1026B000A542EBD800F0BEFFF0682746C068C468AA
:1026C000201D00F067F994F82800410719D5A0698A
:1026D0002B4641193A462046FFF71AFFA8B10020C1
:1026E0000346014600902A46204601F035F860B9BD
:1026F000502080F31188BFF34F8FBFF36F8FFEE739
:1027000007E020F0010084F82800216A204688476D
:10271000B4E70127BAE700005C00002004ED00E008
:102720000648416B096829B1416BC968C9684968A5
:10273000816270474FF0FF31FAE70000200000206F
:1027400070B5054600F094FE064E0446B06884421B
:1027500003D200F009F8012000E0002028602046A4
:10276000B46070BD5C000020F8B5194D20E0C06871
:10277000C4680668201D00F00DF9216A20468847CC
:1027800094F82800400713D5A0693044B04206D918
:1027900024616060211DE86800F034F908E0002041
:1027A0000346014600903246204600F0D5FF38B17E
:1027B000E86801680029DAD12969C5E90310F8BD84
:1027C000502080F31188BFF34F8FBFF36F8FFEE768
:1027D0005C00002008484068401C4FF0500080F327
:1027E000118804D0BFF34F8FBFF36F8FFEE7BFF3A5
:1027F0004F8FBFF36F8FFEE794000020074CE06817
:10280000016841B1C0680021D0F80000FFF728FF3F
:10281000FFF7A8FEF3E701210020F7E75C000020A6
:102820002DE9F041044600F011F994F9455004F106
:10283000240609E0606A48B1304600F0C3FE08B1E2
:1028400000F00AFA6D1E6DB2002DF3DC4FF0FF367A
:1028500084F8456000F01AF900F0F8F894F9445053
:1028600004F1100709E0206948B1384600F0AAFEDB
:1028700008B100F0F1F96D1E6DB2002DF3DC84F8A3
:102880004460BDE8F04100F001B900002DE9F041DD
:102890000546002700F05EFA324E306808B9FFF7AF
:1028A00051FD706905424ED1C5B3083568070ED099
:1028B00005F00700C0F108000544680707D0502064
:1028C00080F31188BFF34F8FBFF36F8FFEE72DB3F7
:1028D0007068854237D82348183001460C6801E0FB
:1028E00020460C466168A94202D221680029F7D12E
:1028F00031688C4227D0076821680160606808371A
:10290000411B10290FD96019420708D0502080F3CD
:102910001188BFF34F8FBFF36F8FFEE713E0416065
:102920006560FFF7CFFD61687068401A7060B2683B
:10293000904200D2B060706901430020C4E90001F8
:10294000F068401CF06000F075FE780707D050205A
:1029500080F31188BFF34F8FBFF36F8FFEE73846C8
:10296000BDE8F0817400002010B5031F4FF08074A3
:102970001C601B1F21F001011960191F044B0B6023
:1029800014390A60091F6FF0020244380A6010BD52
:10299000D5270008D0E9013201699A60D0E9012306
:1029A0005A604A68824201D182684A60002202610C
:1029B0000868401E0860086870470000034B036009
:1029C00003F15C00086080201060704770070020F1
:1029D000044B036003F15C0008604FF480701060EA
:1029E00070470000CC09002000F108014FF0FF32D1
:1029F000C0E90112C160016100210160704700213E
:102A00000161704730B50B685A1C02D000F1080212
:102A100002E0026904E02246546825689D42FAD922
:102A200053684B6099608A60516008610168491C75
:102A3000016030BD42684A6093688B60936859605A
:102A4000916008610168491C01607047502080F363
:102A50001188BFF34F8FBFF36F8F0A494868401C3E
:102A6000486001280CD10848006810F0FF0F07D01B
:102A7000502080F31188BFF34F8FBFF36F8FFEE7B5
:102A8000704700009400002004ED00E00849486809
:102A900028B1401E486001D180F311887047502052
:102AA00080F31188BFF34F8FBFF36F8FFEE70000F5
:102AB0009400002070B500282AD0164DA0F108041B
:102AC00060686969084207D1502080F31188BFF31C
:102AD0004F8FBFF36F8FFEE722683AB1502080F32B
:102AE0001188BFF34F8FBFF36F8FFEE7884360609D
:102AF00000F030F960686968084468602046FFF7B4
:102B0000E1FC2869401C2861BDE8704000F092BDDE
:102B100070BD0000740000204FF0E0200021016132
:102B2000816105494FF47A720968B1FBF2F1491EDF
:102B300041610721016170471C00002010B5FDF7BD
:102B40008BFB114910280ED300F1E02090F8F00320
:102B50000A78904207D2502080F31188BFF34F8F3C
:102B6000BFF36F8FFEE709480068896800F4E060F2
:102B7000884207D9502080F31188BFF34F8FBFF3ED
:102B80006F8FFEE710BD0000940000200CED00E008
:102B900010B5084B002200BF53F832401CB1521C44
:102BA000082AF9D310BD43F8321003EBC201486084
:102BB00010BD00005401002070B515460E460446B5
:102BC000FFF744FF94F944100020491C01D184F818
:102BD000440094F94510491C01D184F84500FFF7E1
:102BE00055FFA06B28B92A46314604F1240000F0B5
:102BF00051F82046BDE87040FFF712BE10B5020044
:102C000014D00F48006B38B1502080F31188BFF307
:102C10004F8FBFF36F8FFEE700F09CF80021104646
:102C2000FFF76AFA00F006FD002807D105494FF0CA
:102C300080500860BFF34F8FBFF36F8F10BD00004F
:102C40002000002004ED00E002490A6A0260C96821
:102C5000416070472000002001490120C861704791
:102C60002000002010B50C4650B109490968183100
:102C7000FFF7C8FE2046BDE810400121FFF73CBA2F
:102C8000502080F31188BFF34F8FBFF36F8FFEE7A3
:102C90002000002070B514460D4668B10A49096845
:102CA0001831FFF7C7FE0CB14FF0FF35214628461B
:102CB000BDE87040FFF720BA502080F31188BFF3C1
:102CC0004F8FBFF36F8FFEE72000002030B587B035
:102CD0000024039405AA04A903A80494FFF76EFE38
:102CE000DDE903010094CDE90110002315A1174887
:102CF000059A00F084FB164D0028E8621FD000F012
:102D0000FBFC012809D0401C19D1502080F3118808
:102D1000BFF34F8FBFF36F8FFEE7502080F3118812
:102D2000BFF34F8FBFF36F8F4FF0FF30A8620120CA
:102D30006861EC6007B0BDE8304000F045B807B00E
:102D400030BD000049444C450000000091230008BC
:102D5000200000200248016B491C016370470000FD
:102D600020000020164810B5016B11B10121C1618E
:102D700010BD0021C1610169124A01E0B9B1491ECB
:102D800001EB810352F82330002BF7D001EB8103D4
:102D900002EB830202F1080453685B685360A342AC
:102DA00001D15B685360DA680260016110BD502098
:102DB00080F31188BFF34F8FBFF36F8FFEE70000E2
:102DC00020000020940100201CB537480168374AD4
:102DD000914207D1502080F31188BFF34F8FBFF38A
:102DE0006F8FFEE700683149491E884207D15020A5
:102DF00080F31188BFF34F8FBFF36F8FFEE72C492D
:102E000008780190FF20087008788DF800009DF880
:102E100000009DF8002000F0F000904207D0502004
:102E200080F31188BFF34F8FBFF36F8FFEE79DF8DC
:102E30000000204C00F0500020700720A06005E04A
:102E40009DF8002052008DF80020401E9DF80020C3
:102E50001206F5D4A060032807D0502080F3118813
:102E6000BFF34F8FBFF36F8FFEE74FF44070A0604A
:102E7000019808700C482030016841F4700101602D
:102E8000016841F070410160FFF746FE002060607C
:102E9000FDF7AAF90848016841F040410160FDF7DB
:102EA0008FF900201CBD000000ED00E071C20F4151
:102EB00000E400E09400002034EF00E010B5502062
:102EC00080F31188BFF34F8FBFF36F8F00F0D6FAF6
:102ED00018B104494FF080500860002080F3118839
:102EE00010BD000004ED00E038B5049D18B153B1E9
:102EF000CAB181B120E0502080F31188BFF34F8F19
:102F0000BFF36F8FFEE7502080F31188BFF34F8F20
:102F1000BFF36F8FFEE7502080F31188BFF34F8F10
:102F2000BFF36F8FFEE739B1502080F31188BFF3F4
:102F30004F8FBFF36F8FFEE750241C46012384F8A8
:102F400046302B460094FFF753FA204638BD000068
:102F500070B50D46040025D0FFF778FDD4E90F20A9
:102F6000216802FB0011A1600021A163216861605A
:102F70000A46D4E90F01401E00FB0121E160214611
:102F80004FF0FF3001F8440F487004F110008DB18C
:102F9000FFF72AFD04F12400FFF726FDFFF776FD79
:102FA000012070BD502080F31188BFF34F8FBFF315
:102FB0006F8FFEE721690029F0D000F003FB0028A5
:102FC000ECD004494FF080500860BFF34F8FBFF33F
:102FD0006F8FE3E704ED00E02DE9FF4782B01D4667
:102FE0008A464FF00008040003D0BAF1000F08D061
:102FF00011E0502080F31188BFF34F8FBFF36F8F24
:10300000FEE7206C38B1502080F31188BFF34F8F5A
:10301000BFF36F8FFEE7022D0AD1E06B012807D0C6
:10302000502080F31188BFF34F8FBFF36F8FFEE7FF
:1030300000F010FA3F4F4FF000094FF0805648B9AA
:10304000049838B1502080F31188BFF34F8FBFF33D
:103050006F8FFEE7FFF7FAFCA06BE16B884207D3A6
:10306000022D05D00498D0B1B8F1000F1AD01EE09F
:103070002A4651462046FFF714F9616A19B104F156
:10308000240000F09FFA20B13E60BFF34F8FBFF3E2
:103090006F8FFFF7FBFC012006B0BDE8F087FFF75C
:1030A000F5FC22E06846FFF7CFFD4FF00108FFF77F
:1030B000EDFCFFF74FFEFFF7C9FC94F94400401CFC
:1030C00001D184F8449094F94500401C01D184F862
:1030D0004590FFF7DBFC04A9684600F029F930B100
:1030E0002046FFF79DFB00F0A5FA0020D4E7FFF78C
:1030F000ADFCA06BE16B884213D1FFF7C7FC04F174
:1031000010000499FFF7AEFD2046FFF789FB00F0A1
:1031100091FA00289ED13E60BFF34F8FBFF36F8FAF
:1031200098E7FFF7B3FC2046FFF77AFB00F082FA3E
:1031300090E7000004ED00E02DE9F0471F469046BF
:103140008946040003D0B9F1000F08D011E05020E7
:1031500080F31188BFF34F8FBFF36F8FFEE7206CB2
:1031600038B1502080F31188BFF34F8FBFF36F8FBA
:10317000FEE7022F0AD1E06B012807D0502080F330
:103180001188BFF34F8FBFF36F8FFEE7FFF7D6FCB9
:103190005020EFF3118680F31188BFF34F8FBFF3F8
:1031A0006F8FA06BE16B884206D3022F04D0002002
:1031B00086F31188BDE8F08794F94550A06B3A4634
:1031C00049462046FFF76DF8681C04D06D1C84F852
:1031D00045500120ECE7606A0028FAD004F1240091
:1031E00000F0F0F90028F4D0B8F1000FF1D001217F
:1031F000C8F80010EDE700002DE9F747002683B07E
:103200008A46040003D0BAF1000F08D011E0502024
:1032100080F31188BFF34F8FBFF36F8FFEE7206CF1
:1032200038B1502080F31188BFF34F8FBFF36F8FF9
:10323000FEE700F00FF9DFF8F4804FF000094FF0DF
:10324000805748B9059838B1502080F31188BFF3F2
:103250004F8FBFF36F8FFEE7FFF7F8FBA56BC5B18C
:1032600051462046FFF70AF86D1EA563206950B14C
:1032700004F1100000F0A6F928B1C8F80070BFF3FF
:103280004F8FBFF36F8FFFF701FC012006B0BDE841
:10329000F087059808B11EB106E0FFF7F7FB27E0BD
:1032A0006846FFF7D1FC0126FFF7F0FBFFF752FD60
:1032B000FFF7CCFB94F94400401C01D184F8449002
:1032C00094F94500401C01D184F84590FFF7DEFBDE
:1032D00005A9684600F02CF8002820460AD0FFF720
:1032E0009FFA00F0A7F92046FFF72EF90028B3D087
:1032F0000020CBE7FFF728F990B104F124000599ED
:10330000FFF7B0FC2046FFF78BFA00F093F9002896
:10331000A2D1C8F80070BFF34F8FBFF36F8F9BE748
:103320002046FFF77DFA00F085F995E704ED00E00F
:103330002DE9F0410C46050011D0C4B1FFF786FB22
:10334000174BDA686E682068911B471C17D02F68EE
:103350001B6A9F4219D0964217D8012410E05020D2
:1033600080F31188BFF34F8FBFF36F8FFEE75020BC
:1033700080F31188BFF34F8FBFF36F8FFEE70024F8
:10338000FFF784FB2046BDE8F081884205D9401A4A
:1033900020602846FFF758FCF1E700202060DCE7BA
:1033A000200000202DE9FF5F8346DDE90E87994666
:1033B00016468A469000FFF769FA05001CD05C208B
:1033C000FFF764FA040014D00020256384F8590044
:1033D000CDE90240CDE900874B463246514658467A
:1033E000FFF718F82046FEF7B5FE012004B0BDE84F
:1033F000F09F2846FFF75EFB4FF0FF30F6E7F0B591
:1034000085B0DDE90B640A9DA6B1DCB15C270097AD
:103410002663022684F85960002604AFCDE90246EF
:10342000CDE90057FEF7F6FF2046FEF793FE04981D
:1034300005B0F0BD502080F31188BFF34F8FBFF36C
:103440006F8FFEE7502080F31188BFF34F8FBFF3DB
:103450006F8FFEE70548416919B1006B18B1002074
:1034600070470120704702207047000020000020B4
:103470000148C06870470000200000202DE9F0419D
:103480002E4C0027206B28B1A069401CA061384653
:10349000BDE8F081E668761CE66013D1606B0068D9
:1034A00038B1502080F31188BFF34F8FBFF36F8F77
:1034B000FEE7606BA16B6163A063206A401C206221
:1034C000FFF72EF9A06ADFF87880864209D3606B97
:1034D0000068A0B1606BC068C5686868864211D298
:1034E000A0622068C06A00EB800158F82100012822
:1034F00000D90127E0690028C9D00127C7E74FF0AC
:10350000FF30EDE7281DFFF745FAA86A18B105F16D
:103510001800FFF73FFAE86A2169884200D9206164
:1035200000EB800108EB8100291DFFF783FAE86AB0
:103530002168C96A8842CAD30127C8E72000002051
:103540009401002070B504004FF0000133D01B4DF2
:103550002868844207D0502080F31188BFF34F8F32
:10356000BFF36F8FFEE7206D38B1401E2065E36C1E
:10357000E26A9A421FD040B11DE0502080F31188CA
:10358000BFF34F8FBFF36F8FFEE7201DFFF702FAE7
:10359000E06CE062C0F13800A061E06A296988420D
:1035A00000D92861064900EB800001EB8000211D55
:1035B000FFF740FA0121084670BD000020000020FE
:1035C0009401002070B5C068C46854B104F11800BB
:1035D0000646FFF7DFF9144D286B50B1314613480A
:1035E00015E0502080F31188BFF34F8FBFF36F8F2A
:1035F000FEE7201DFFF7CEF9E06A2969884200D96D
:1036000028610B4900EB800001EB8000211DFFF7D2
:1036100011FAE06A2968C96A884202D90120E86182
:1036200070BD002070BD0000200000201C0600209E
:10363000940100202DE9F0472C4D00242746286BEB
:1036400038B1FFF703FA286B401E2863286B40B19E
:1036500046E0502080F31188BFF34F8FBFF36F8F88
:10366000FEE7A968224E0120D1B3A6F591698046F4
:103670003068E0B1F068C46804F11800FFF78AF917
:10368000201DFFF787F9E06A2969884200D928617F
:1036900000EB800109EB8100211DFFF7CBF9E06A07
:1036A0002968C96A8842E3D3C5F81C80E0E70CB1F9
:1036B000FFF736F8AC694CB14FEA0806FFF7DEFEBB
:1036C00000B1EE61641EF9D10020A861E86938B14B
:1036D0000849012738070860BFF34F8FBFF36F8F8A
:1036E000FFF7D4F93846BDE8F0870000200000203D
:1036F0001C06002004ED00E010B586B0FEF792FD38
:10370000114C2068B8B100200390049005AA04A9C8
:1037100003A8FFF75DF9DDE9032102208DE807002A
:1037200000230AA10B48059AFFF769FE606010B1FB
:1037300006B0012010BD502080F31188BFF34F8FD9
:10374000BFF36F8FFEE700005C000020546D722015
:1037500053766300FD2700082DE9FF411E461346FE
:1037600002000A9D4FF0000016D0144C2768002F6D
:103770000FD0CDE900130292062917DAFFF76AFE8F
:1037800002284FF000030FD0002269462068FFF79F
:1037900023FC04B0BDE8F081502080F31188BFF312
:1037A0004F8FBFF36F8FFEE72A46EEE700233246C6
:1037B00069463846FFF7C0FCEBE700005C000020DC
:1037C0006C3800080000000000000000000000004D
:1037D00000000000000200001800000000000000CF
:1037E000000000005C38000800000000000000003D
:1037F00000000000000000000002000018000000AF
:103800000000000000000000643800080000000014
:1038100000000000000000000000000000020000A6
:103820000800000000000000000000000000000090
:103830000000000001020304060708090000000060
:10384000010203040100010140000000404A002081
:10385000404E0020C04E00200000000042757A7AE1
:10386000657200004D6F746F720000004C45444655
:103870006C6F77009438000800000020BC00000046
:10388000E41C000850390008BC0000202C52000045
:10389000F41C000800000000000000000000000010
:1038A0000000000001000000100000000000000007
:1038B0000024F400000000000000000000000000F0
:1038C00000000000000000000000000000000000F8
:1038D00000000000000000000000000000000000E8
:1038E00000000000000000000000000000000000D8
:1038F00000000000000000000000000000000000C8
:1039000000000000000000000000000000000000B7
:1039100000000000000000000000000000000000A7
:10392000000000000000000000000000AAAAAAAAEF
:103930000000000000000000000000000000000087
:103940000000000000000000000000000000000077
:040000050800018965
:00000001FF
